:03000000020E17D6
:0C0E1700787FE4F6D8FD758171020E5E54
:1012000030313233343536373839303132333435A2
:0A1210003637383941424344454661
:0C1242000214000102080080020A00C033
:100C3F005317FE5317F7E4F5A07FDC7E05FDFC127A
:100C4F0011231210D07F0A7E007D007C0012112329
:100C5F001210D07F017E007D007C00121123121034
:100C6F00D07F017E007D007C00121123E51720E06C
:100C7F00077F207E001210D47537007538207B0057
:100C8F007A007937753E00E5175401F53F7D047CF6
:100C9F00001210747B007A007937753E00753F01A2
:100CAF007D037C001210747B007A007937E4F53EE7
:100CBF00F53F7D02FC121074AF38AE37120D807FF6
:100CCF00087E00120D801212307F067E00120D80FA
:070CDF007F0E7E00020D8074
:101230007F017E00120D807F1A7E047D007C0002FB
:0212400011DAC1
:0410D0007F307E00EF
:1010D4008E398F3A7F017E007D007C00121123C27D
:1010E400A1C2A07F017E007D007C001211DAD2A291
:1010F4007F017E007D007C001211DAE53A54F0FF96
:10110400E5A0540F4FF5A07F017E007D007C001206
:0F11140011DAC2A27F0A7E007D007C000211DA90
:100D80008E398F3A7F017E007D007C00121123C2D4
:100D9000A1C2A07F017E007D007C001211DAD2A2E8
:100DA0007F017E007D007C001211DAE51720E04C07
:100DB000E53A54F0FFE5A0540F4FF5A07F017E0007
:100DC0007D007C001211DAC2A27F0A7E007D007CC9
:100DD000001211DA7F017E007D007C001211DAD250
:100DE000A27F017E007D007C001211DAAF3AEFC4D1
:100DF00054F0FFE5A0540F4FF5A08003853AA07F83
:100E0000017E007D007C001211DAC2A27F0A7E0002
:070E10007D007C000211DAF5
:060CE600744D2FF8E6FF3B
:100CEC008F677F017E007D007C00121123C2A1D290
:100CFC00A07F017E007D007C001211DAD2A27F0160
:100D0C007E007D007C001211DAE51720E04BE567D0
:100D1C0054F0FFE5A0540F4FF5A07F017E007D003D
:100D2C007C001211DAC2A27F0A7E007D007C0012C8
:100D3C0011DA7F017E007D007C001211DAD2A27FD5
:100D4C00017E007D007C001211DAE567C454F0FFCF
:100D5C00E5A0540F4FF5A080038567A07F017E00AE
:100D6C007D007C001211DAC2A27F0A7E007D007C1D
:040D7C00000211DA86
:06118C008B398A3A893B11
:10119200AB39AA3AA93B1200F96015053BE53B7051
:1011A20002053A14F91200F9F53CFF120CEC80E04A
:0111B200221A
:1006D900784D7C007D007BFF7A1279007E007F0ACD
:1006E9001200D378577C007D007BFF7A12790A7E4D
:1006F900007F101200D3E53C30E02BAE39AD38ACA9
:1007090037EC33501A7F2D120CECAF3AAE39AD38B5
:10071900AC3712028B8F488E478D468C4580137FEC
:100729002B120CEC8000853A488539478538468577
:10073900374585484C85474B85464A854549E53BBC
:10074900C313E53C13547F14B4090040030208CBDA
:1007590090076775F003A4C58325F0C58373020864
:10076900390208080207D60207A3020782020856BF
:100779000208700208980208BC85484C85474B85D9
:10078900464A854549E47B107A27F9F8AF4CAE4BC8
:10079900AD4AAC491201F9120CE6E47B107A27F94B
:1007A900F8AF48AE47AD46AC451201F9AC00AD0112
:1007B900AE02AF038F4C8E4B8D4A8C49E47BE87AAD
:1007C90003F9F81201F98E3D8F3E120CE6E47BE83D
:1007D9007A03F9F8AF48AE47AD46AC451201F9AC1A
:1007E90000AD01AE02AF038F4C8E4B8D4A8C49E4AC
:1007F9007B64FAF9F81201F98E3F8F40120CE6E496
:100809007B64FAF9F8AF48AE47AD46AC451201F939
:10081900AC00AD01AE02AF038F4C8E4B8D4A8C49B3
:10082900E47B0AFAF9F81201F98E418F42120CE6BB
:10083900E47B0AFAF9F8AF48AE47AD46AC45120178
:10084900F9AE02AF038E438F44744D8072E4FB7A94
:1008590010F9F8AF4CAE4BAD4AAC491201F98E3DD7
:100869008F3E7457120CE8E548F54CE547540FF5EF
:100879004BE4F54AF549FB7A01F9F8AF4CAE4BADBB
:100889004AAC491201F98E3F8F407457120CE8E5C2
:1008990048F54CE4F54BF54AF5497B10FAF9F8AF00
:1008A9004CAE4BAD4AAC491201F98E418F42745797
:1008B900120CE8E548540FFFE4F5438F44745712CE
:0208C9000CE839
:0108CB00220A
:10100F00ED24FFFBEC34FFFA751400751501D3EFD7
:10101F009404EE94005048ED9414EC94005040EE7C
:10102F00702DEF24FE601214601714601C240370DF
:10103F001E75080075098080167508007509C08037
:10104F000E75080075099480067508007509D4EBB4
:10105F002509F509EA3508F508AF09FE020D80E408
:04106F00F514F5156A
:01107300225A
:10115F0043682030203A2025346C752C20307825B8
:10116F00346C58200D00414443204368616E6E6516
:0D117F006C2030204F7574707574005600A0
:100A8700E4F522F52A752910F528F527C2A3C290A7
:100A9700120C3F120FA412124F7F0C1211B3121235
:100AA7005BC290C2A3E4F522432201432204AF2292
:100AB7001208CC8F268E258D248C23AF2AAE29AD24
:100AC70028AC27AB26AA25A924A823C3120299700C
:100AD70003020C3A7BFF7A11795F85263D85253C19
:100AE70085243B85233A85264185254085243F85F6
:100AF700233E1203DFC290E4753E05F53DF53CF554
:100B07003BF542F541F540F53FF543754400754522
:100B17002BF54675470075482FAF26AE25AD24AC9B
:100B270023120F255311FEE51154018510104404BB
:100B3700F511852E0F852D0E852C0D852B0C7D012E
:100B47007C007F027E0012100F78377C007D007BCF
:100B5700007A00790C7E007F061200D31206D95363
:100B670011FEE51154018510104402F51185320F6D
:100B770085310E85300D852F0C7D047C007F027E2C
:100B87000012100F78377C007D007B007A00790C0B
:100B97007E007F061200D31206D9AF26AE25AD24FC
:100BA700AC23753E00753F007540357B007A0079B0
:100BB70033120EA35311FEE511540185101044069C
:100BC700F511E485340F85330EF50DF50C7D09FC21
:100BD7007F02FE12100F78377C007D007B007A00C1
:100BE700790C7E007F061200D31206D95311FEE559
:100BF7001154018510104402F511E485360F85352F
:100C07000EF50DF50C7D0DFC7F02FE12100F7837E7
:100C17007C007D007B007A00790C7E007F06120045
:100C2700D31206D985262A852529852428852327B1
:080C3700020AACD290020AACE3
:100FA40078377C007D007BFF7A11798A7E007F028E
:100FB4001200D37D017C007F017E0012100F7BFFA5
:100FC4007A11797512118C7D037C007F027E0012E8
:100FD400100F7F2E120CEC7D057C007F027E001228
:100FE400100F7B007A00793712118C7D0C7C007F06
:100FF400027E0012100F7F2E120CEC7D0F7C007FFE
:0B100400027E0012100F7F25020CEC92
:0811DA008F718E708D6F8C6E19
:1011E200E4F583F582AF82AE83E4FCFDAB71AA70B5
:0D11F200A96FA86ED31202994003A380E8F4
:0111FF0022CD
:081123008F6B8E6A8D698C68E8
:10112B00E4F56CF56DF56CF56DAE6CAF6DE4FCFD37
:10113B00AB6BAA6AA969A868D312029940157F64A0
:10114B007E007D007C001211DA056DE56D70DA050D
:03115B006C80D6CF
:01115E00226E
:10121A008F1B8E1A8D198C18781874FF1202C6EC5F
:06122A004D4E4F70F3224F
:101074008B398A3A893B8C3C8D3DE53F6401453E82
:10108400701E120124FDACF07E007401A83D08809E
:1010940005C333CE33CED8F9FFEC4EFEED4F80249A
:1010A400AB39AA3AA93B120124FDACF07E007401CD
:1010B400A83D088005C333CE33CED8F9F4FFEEF44F
:0C10C4005CFEED5FFFEE8FF012014F228A
:09125B00D296C297C295C29422FA
:0208CC00A9077A
:1008CE00E4FBF53CF53BF53AF539E95418131313EF
:1008DE00541FFF7E00EE7014EF14600A14600B14A8
:1008EE00600824037006C2958002D2950B0BC29449
:1008FE000BE4FDFCF537753801FAEAC394087480F1
:10090E009480505CC374079AFF7E007401A8070898
:10091E008005C333CE33CED8F9FFE5375EF583E5D8
:10092E00385F45836007EF4E6003D38001C3929713
:10093E00B2950B0BC374079AFF3096059000018099
:10094E0003900000AE83E582A807088005C333CE6E
:10095E0033CED8F94205EE4204B2950B0B0A809ABB
:10096E00E4F537F538E930E203433880E930E10346
:10097E00433840E930E003433820E4FCFDFAEAC393
:10098E00940874809480505CC374079AF97E007446
:10099E0001A801088005C333CE33CED8F9FFE53761
:1009AE005EF583E5385F45836007EF4E6003D380C5
:1009BE0001C39297B2950B0BC374079AFF3096053D
:1009CE009000018003900000AE83E582A8070880A6
:1009DE0005C333CE33CED8F94205EE4204B2950BA1
:1009EE000B0A809AED540FFEE4F53C8E3BF53AF57A
:1009FE0039FCFDF537F538FAEAC394087480948013
:100A0E00505CC374079AF97E007401A80108800532
:100A1E00C333CE33CED8F9FFE5375EF583E5385FC5
:100A2E0045836007EF4E6003D38001C39297B29562
:100A3E000B0BC374079AFF3096059000018003904C
:100A4E000000AE83E582A807088005C333CE33CEFF
:100A5E00D8F94205EE4204B2950B0B0A809AD29455
:100A6E00AF05AB07E53BFEEBF53CEEF53BE4F53AA7
:080A7E00F539AE3BAD3AAC398D
:010A8600224D
:080F25008F3A8E398D388C37AC
:100F2D00AB3EAA3DA93CA83B12016EE47BFF7A0FB4
:100F3D00F9F81201F9EF2542FFEE3541FEED35408E
:100F4D00FDEC353FFCAB43AA44A9451202AAAF3ACA
:100F5D00AE39AD38AC37AB3EAA3DA93CA83B12012A
:100F6D006EE47BFF7A0FF9F81201F9AC00AD01AE1A
:100F7D0002AF038F4C8E4B8D4A8C49E47F0AFEFDE8
:100F8D00FC12016EE47BFF7A0FF9F81201F9AB4602
:070F9D00AA47A9480202AABD
:0E0EA3008F3A8E398D388C378B3B8A3C893DD7
:100EB100E47F64FEFDFCAB3AAA39A938A8371201D8
:100EC1006E8F448E438D428C41E47F64FEFDFCAB0A
:100ED1003AAA39A938A83712016EE47BFF7A0FF9D3
:100EE100F81201F9AB3BAA3CA93DEE8FF012014F7C
:100EF100E47BFF7A0FF9F8AF44AE43AD42AC411247
:100F010001F9AE02AF037C007D0A120112E4FD7B00
:100F1100FF7A0FF9F81201F9AB3EAA3FA940EE8F13
:040F2100F002014F8A
:0C124F00759852758920758DFDD28E2295
:100E2300020A87E493A3F8E493A34003F68001F254
:100E330008DFF48029E493A3F85407240CC8C333D0
:100E4300C4540F4420C8834004F456800146F6DF9F
:100E5300E4800B0102040810204080901242E47EDB
:100E6300019360BCA3FF543F30E509541FFEE49394
:100E7300A360010ECF54C025E060A840B8E493A35B
:100E8300FAE493A3F8E493A3C8C582C8CAC583CA86
:100E9300F0A3C8C582C8CAC583CADFE9DEE780BE3E
:01124E00009F
:10000300E709F608DFFA8046E709F208DFFA803EDF
:1000130088828C83E709F0A3DFFA8032E309F608CC
:10002300DFFA8078E309F208DFFA807088828C8334
:10003300E309F0A3DFFA806489828A83E0A3F608E8
:10004300DFFA805889828A83E0A3F208DFFA804CC2
:1000530080D280FA80C680D4806980F28033801099
:1000630080A680EA809A80A880DA80E280CA803302
:1000730089828A83ECFAE493A3C8C582C8CCC5837A
:10008300CCF0A3C8C582C8CCC583CCDFE9DEE7804A
:100093000D89828A83E493A3F608DFF9ECFAA9F0C9
:1000A300EDFB2289828A83ECFAE0A3C8C582C8CC1F
:1000B300C583CCF0A3C8C582C8CCC583CCDFEADE38
:1000C300E880DB89828A83E493A3F208DFF980CC9A
:1000D30088F0EF60010E4E60C388F0ED2402B40493
:1000E3000050B9F582EB2402B4040050AF2323453A
:0600F3008223900053730C
:1000F900BB010689828A83E0225002E722BBFE0205
:09010900E32289828A83E4932237
:10011200EF8DF0A4A8F0CF8CF0A428CE8DF0A42E01
:02012200FE22BB
:10012400BB010A89828A83E0F5F0A3E022500687A6
:10013400F009E71922BBFE07E3F5F009E319228968
:0B014400828A83E493F5F0740193229B
:10014F00BB010A89828A83F0E5F0A3F0225006F7FB
:0F015F0009A7F01922BBFE06F3E5F009F31922F8
:10016E00E88FF0A4CC8BF0A42CFCE98EF0A42CFC30
:10017E008AF0EDA42CFCEA8EF0A4CDA8F08BF0A4AE
:10018E002DCC3825F0FDE98FF0A42CCD35F0FCEB0D
:10019E008EF0A4FEA9F0EB8FF0A4CFC5F02ECD39D2
:0F01AE00FEE43CFCEAA42DCE35F0FDE43CFC223F
:1001BD0075F008758200EF2FFFEE33FECD33CDCCF9
:1001CD0033CCC58233C5829BED9AEC99E58298407C
:1001DD000CF582EE9BFEED9AFDEC99FC0FD5F0D659
:1001ED00E4CEFBE4CDFAE4CCF9A88222B800C1B983
:1001FD000059BA002DEC8BF084CFCECDFCE5F0CBC1
:10020D00F97818EF2FFFEE33FEED33FDEC33FCEBF9
:10021D0033FB10D703994004EB99FB0FD8E5E4F9B4
:10022D00FA227818EF2FFFEE33FEED33FDEC33FCA1
:10023D00C933C910D7059BE99A4007EC9BFCE99A95
:10024D00F90FD8E0E4C9FAE4CCFB2275F010EF2FDA
:10025D00FFEE33FEED33FDCC33CCC833C810D707DA
:10026D009BEC9AE899400AED9BFDEC9AFCE899F815
:0E027D000FD5F0DAE4CDFBE4CCFAE4C8F922A8
:0E028B00C3E49FFFE49EFEE49DFDE49CFC2284
:10029900EB9FF5F0EA9E42F0E99D42F0E89C45F0BB
:0102A9002232
:1002AA00BB010789828A8302032F5005E9F80203FA
:0A02BA0023BBFE05E9F802033B2216
:1002C4007401FF3395E0FEFDFC080808E6CF2FF625
:1002D40018E6CE3EF618E6CD3DF618E6CC3CF622FE
:1011B300EFB40A07740D1211BE740A309811A8997E
:1011C300B8130CC2983098FDA899C298B811F6309C
:0711D30099FDC299F5992274
:10037D00E546243AF8E60546227837300702783A02
:10038D00E475F0011203470200F92000EB7F2ED235
:10039D00008018EF540F2490D43440D4FF30040B58
:1003AD00EF24BFB41A0050032461FFE54760021526
:1003BD0047054AE54A7002054930070D7837E4755F
:1003CD00F001120347EF0203110211B37403D207B8
:1003DD008003E4C207F5468B378A388939E4F5473F
:1003ED00F549F54AE54760077F201203B880F5759A
:1003FD0048FFC201C200C202C203C205C206C20842
:10040D00120386FF700D3007057F001203C9AF4A36
:10041D00AE4922B4255FC2D5C204120386FF24D093
:10042D00B40A00501A75F00A784730D50508B6FFA2
:10043D000106C6A426F620D5047002D20380D92465
:10044D00CFB41A00EF5004C2E5D2040205C9D2019F
:10045D0080C6D20080C0D20280BCD2D580BAD2056F
:10046D0080B47F201203B82002077401B547004005
:10047D00F112037DFF1203B80203F1D208D20680F8
:10048D009512037DFB12037DFA12037DF94A4B7021
:10049D0006799A7A067BFF20022EE547602A7E00B8
:1004AD008E827583001202E460060EEE654870F0D0
:1004BD00C2D5EBC0E0EAC0E0E9C0E0EE120610D014
:1004CD00E0F9D0E0FAD0E0FB1200F9FF60AAEBC032
:1004DD00E0EAC0E0E9C0E01203B8D0E02401F9D0B1
:1004ED00E03400FAD0E0FBE5480460DCD548D98063
:1004FD00877BFF7A06790CD202809C791080027975
:10050D0008C206C2088008D2D5790A8004790AC2C9
:10051D00D5E548047002F548E4FAFDFEFF12037DAF
:10052D00FC7B0820011312037DFD7B1030000A12A5
:10053D00037DFE12037DFF7B20EC3382D592D550D7
:10054D0013C3E43000069FFFE49EFEE42001039DEB
:10055D00FDE49CFCE4CBF8C201EC700CCFCECDCC0D
:10056D00E824F8F870F38017C3EF33FFEE33FEED98
:10057D0033FDEC33FCEB33FB994002FB0FD8E9EB79
:10058D00300105F8D0E0C448B201C0E00AEC4D4E90
:10059D004F78207B0070C2EAB5480040BCC0E01225
:1005AD000612D0F0D0E0200104C4C0E0C4B201C0F6
:1005BD00F01203A1D0F0D5F0EB0203F112035704B2
:1005CD008E53050858045F4C045B42050C4F05140F
:0F05DD0044051449047443051A5504FE4604FEF0
:1005EC004504FE4706BA5004632D04672E048A2B7B
:1005FC00046B2304882006A32A04234800000482E9
:10060C003F3F3F00790AA2D5200314300509B910E9
:10061C00020404B9080104A2D520060250010420EA
:10062C0002689202B547005034C0E07F20300319B5
:10063C007F30A20272067205500F120669C202C206
:10064C0006C205C2087F30800F300503E9C0E012F6
:10065C0003B8300503D0E0F9D0E0B547CC3005172E
:10066C007F30B9100C1203B87F583004077F7880A4
:10067C0003B908031203B83002057F2D0203B87FBB
:10068C00202008F87F2B2006F322920280CF286EC0
:10069C00756C6C2900D20112037D3001F8C201780F
:1006AC004730D50108F60204232D50434958120354
:1006BC007D2403B405004001E49006B5931203A910
:0D06CC00743A1203A9D20375470402050811
:1002E400BB010CE58229F582E5833AF583E02250CF
:1002F40006E92582F8E622BBFE06E92582F8E22219
:0D030400E58229F582E5833AF583E4932232
:10031100BB010689828A83F0225002F722BBFE01CB
:02032100F322C5
:0C032300ECF608EDF608EEF608EFF62206
:0C032F00ECF0A3EDF0A3EEF0A3EFF02241
:0C033B00ECF208EDF208EEF208EFF222FE
:10034700FAE6FB0808E6F925F0F618E6CA3AF622B7
:10035700D083D082F8E4937012740193700DA3A335
:1003670093F8740193F5828883E473740293686049
:06037700EFA3A3A380DF49
:00000001FF
